{
  "contractName": "MarkSheet",
  "abi": [
    {
      "constant": true,
      "inputs": [
        {
          "name": "",
          "type": "uint256"
        }
      ],
      "name": "students",
      "outputs": [
        {
          "name": "",
          "type": "address"
        }
      ],
      "payable": false,
      "stateMutability": "view",
      "type": "function",
      "signature": "0x06ead22e"
    },
    {
      "constant": true,
      "inputs": [
        {
          "name": "",
          "type": "uint256"
        }
      ],
      "name": "getID",
      "outputs": [
        {
          "name": "",
          "type": "uint128"
        }
      ],
      "payable": false,
      "stateMutability": "view",
      "type": "function",
      "signature": "0x0d18e43c"
    },
    {
      "constant": true,
      "inputs": [
        {
          "name": "",
          "type": "address"
        },
        {
          "name": "",
          "type": "uint128"
        }
      ],
      "name": "checkStudentSubjects",
      "outputs": [
        {
          "name": "",
          "type": "bool"
        }
      ],
      "payable": false,
      "stateMutability": "view",
      "type": "function",
      "signature": "0x14440740"
    },
    {
      "constant": true,
      "inputs": [
        {
          "name": "",
          "type": "uint256"
        }
      ],
      "name": "teachers",
      "outputs": [
        {
          "name": "",
          "type": "address"
        }
      ],
      "payable": false,
      "stateMutability": "view",
      "type": "function",
      "signature": "0x34ac0b40"
    },
    {
      "constant": true,
      "inputs": [
        {
          "name": "",
          "type": "address"
        },
        {
          "name": "",
          "type": "uint256"
        }
      ],
      "name": "studentSubjects",
      "outputs": [
        {
          "name": "",
          "type": "uint128"
        }
      ],
      "payable": false,
      "stateMutability": "view",
      "type": "function",
      "signature": "0x6fa64564"
    },
    {
      "constant": true,
      "inputs": [
        {
          "name": "",
          "type": "address"
        },
        {
          "name": "",
          "type": "uint128"
        }
      ],
      "name": "studentSubjectMarks",
      "outputs": [
        {
          "name": "",
          "type": "uint8"
        }
      ],
      "payable": false,
      "stateMutability": "view",
      "type": "function",
      "signature": "0x706e7899"
    },
    {
      "constant": true,
      "inputs": [
        {
          "name": "",
          "type": "uint128"
        }
      ],
      "name": "subDetails",
      "outputs": [
        {
          "name": "subjectName",
          "type": "string"
        },
        {
          "name": "subjectCode",
          "type": "string"
        },
        {
          "name": "isSubject",
          "type": "bool"
        }
      ],
      "payable": false,
      "stateMutability": "view",
      "type": "function",
      "signature": "0x9cd76de3"
    },
    {
      "constant": true,
      "inputs": [
        {
          "name": "",
          "type": "uint256"
        }
      ],
      "name": "disMarks",
      "outputs": [
        {
          "name": "",
          "type": "uint8"
        }
      ],
      "payable": false,
      "stateMutability": "view",
      "type": "function",
      "signature": "0xcc383739"
    },
    {
      "constant": true,
      "inputs": [
        {
          "name": "",
          "type": "address"
        }
      ],
      "name": "checkTeacher",
      "outputs": [
        {
          "name": "name",
          "type": "string"
        },
        {
          "name": "branchIn",
          "type": "string"
        },
        {
          "name": "isTeacher",
          "type": "bool"
        }
      ],
      "payable": false,
      "stateMutability": "view",
      "type": "function",
      "signature": "0xdf514f67"
    },
    {
      "constant": true,
      "inputs": [],
      "name": "dean",
      "outputs": [
        {
          "name": "",
          "type": "address"
        }
      ],
      "payable": false,
      "stateMutability": "view",
      "type": "function",
      "signature": "0xe982247f"
    },
    {
      "constant": true,
      "inputs": [
        {
          "name": "",
          "type": "address"
        }
      ],
      "name": "checkStudent",
      "outputs": [
        {
          "name": "name",
          "type": "string"
        },
        {
          "name": "branchIn",
          "type": "string"
        },
        {
          "name": "batch",
          "type": "string"
        },
        {
          "name": "sem",
          "type": "uint8"
        },
        {
          "name": "class",
          "type": "string"
        },
        {
          "name": "isStudent",
          "type": "bool"
        }
      ],
      "payable": false,
      "stateMutability": "view",
      "type": "function",
      "signature": "0xf481345a"
    },
    {
      "inputs": [],
      "payable": false,
      "stateMutability": "nonpayable",
      "type": "constructor",
      "signature": "constructor"
    },
    {
      "constant": false,
      "inputs": [
        {
          "name": "_subID",
          "type": "uint128"
        },
        {
          "name": "_subName",
          "type": "string"
        },
        {
          "name": "_subCode",
          "type": "string"
        }
      ],
      "name": "addSubDetails",
      "outputs": [
        {
          "name": "",
          "type": "bool"
        }
      ],
      "payable": false,
      "stateMutability": "nonpayable",
      "type": "function",
      "signature": "0xb78caec1"
    },
    {
      "constant": false,
      "inputs": [
        {
          "name": "_branch",
          "type": "string"
        }
      ],
      "name": "addBranch",
      "outputs": [
        {
          "name": "",
          "type": "bool"
        }
      ],
      "payable": false,
      "stateMutability": "nonpayable",
      "type": "function",
      "signature": "0x3e274241"
    },
    {
      "constant": false,
      "inputs": [
        {
          "name": "_branch",
          "type": "string"
        },
        {
          "name": "_subID",
          "type": "uint128"
        },
        {
          "name": "_sem",
          "type": "uint8"
        }
      ],
      "name": "addSubInBranch",
      "outputs": [
        {
          "name": "",
          "type": "bool"
        }
      ],
      "payable": false,
      "stateMutability": "nonpayable",
      "type": "function",
      "signature": "0xe1aabf94"
    },
    {
      "constant": true,
      "inputs": [
        {
          "name": "_branch",
          "type": "string"
        }
      ],
      "name": "getSubFromBranch",
      "outputs": [
        {
          "name": "",
          "type": "uint128[]"
        }
      ],
      "payable": false,
      "stateMutability": "view",
      "type": "function",
      "signature": "0x1576187d"
    },
    {
      "constant": true,
      "inputs": [
        {
          "name": "_sem",
          "type": "uint8"
        }
      ],
      "name": "getSubFromSem",
      "outputs": [
        {
          "name": "",
          "type": "uint128[]"
        }
      ],
      "payable": false,
      "stateMutability": "view",
      "type": "function",
      "signature": "0x5f5b0f52"
    },
    {
      "constant": false,
      "inputs": [
        {
          "name": "_branch",
          "type": "string"
        },
        {
          "name": "_sem",
          "type": "uint8"
        }
      ],
      "name": "getSub",
      "outputs": [
        {
          "name": "",
          "type": "uint128[]"
        }
      ],
      "payable": false,
      "stateMutability": "nonpayable",
      "type": "function",
      "signature": "0xc7824c3e"
    },
    {
      "constant": false,
      "inputs": [
        {
          "name": "_ad",
          "type": "address"
        },
        {
          "name": "_name",
          "type": "string"
        },
        {
          "name": "_branchIn",
          "type": "string"
        },
        {
          "name": "_subjects",
          "type": "uint128"
        }
      ],
      "name": "addTeacher",
      "outputs": [
        {
          "name": "",
          "type": "bool"
        }
      ],
      "payable": false,
      "stateMutability": "nonpayable",
      "type": "function",
      "signature": "0x0d941d94"
    },
    {
      "constant": true,
      "inputs": [],
      "name": "getTeachers",
      "outputs": [
        {
          "name": "",
          "type": "address[]"
        }
      ],
      "payable": false,
      "stateMutability": "view",
      "type": "function",
      "signature": "0x2d4bf154"
    },
    {
      "constant": false,
      "inputs": [
        {
          "name": "_ad",
          "type": "address"
        },
        {
          "name": "_name",
          "type": "string"
        },
        {
          "name": "_branchIn",
          "type": "string"
        },
        {
          "name": "_batch",
          "type": "string"
        },
        {
          "name": "_class",
          "type": "string"
        }
      ],
      "name": "addStudent",
      "outputs": [
        {
          "name": "",
          "type": "bool"
        }
      ],
      "payable": false,
      "stateMutability": "nonpayable",
      "type": "function",
      "signature": "0xe3142217"
    },
    {
      "constant": true,
      "inputs": [],
      "name": "getStudents",
      "outputs": [
        {
          "name": "",
          "type": "address[]"
        }
      ],
      "payable": false,
      "stateMutability": "view",
      "type": "function",
      "signature": "0xf1d064b3"
    },
    {
      "constant": true,
      "inputs": [
        {
          "name": "_branch",
          "type": "string"
        }
      ],
      "name": "getBranchStudent",
      "outputs": [
        {
          "name": "",
          "type": "address[]"
        }
      ],
      "payable": false,
      "stateMutability": "view",
      "type": "function",
      "signature": "0x896eb53a"
    },
    {
      "constant": true,
      "inputs": [
        {
          "name": "_class",
          "type": "string"
        }
      ],
      "name": "getClassStudent",
      "outputs": [
        {
          "name": "",
          "type": "address[]"
        }
      ],
      "payable": false,
      "stateMutability": "view",
      "type": "function",
      "signature": "0x07bb9cb4"
    },
    {
      "constant": false,
      "inputs": [
        {
          "name": "_studAd",
          "type": "address"
        }
      ],
      "name": "getStudentSubs",
      "outputs": [
        {
          "name": "",
          "type": "uint128[]"
        }
      ],
      "payable": false,
      "stateMutability": "nonpayable",
      "type": "function",
      "signature": "0x4a13a6a2"
    },
    {
      "constant": false,
      "inputs": [
        {
          "name": "_studAd",
          "type": "address"
        },
        {
          "name": "_subject",
          "type": "uint128"
        },
        {
          "name": "_marks",
          "type": "uint8"
        }
      ],
      "name": "marks",
      "outputs": [
        {
          "name": "",
          "type": "bool"
        }
      ],
      "payable": false,
      "stateMutability": "nonpayable",
      "type": "function",
      "signature": "0xad633f04"
    },
    {
      "constant": false,
      "inputs": [
        {
          "name": "_studAd",
          "type": "address"
        }
      ],
      "name": "showMarks",
      "outputs": [
        {
          "name": "",
          "type": "uint8[]"
        }
      ],
      "payable": false,
      "stateMutability": "nonpayable",
      "type": "function",
      "signature": "0x69a311ce"
    }
  ],
  "bytecode": "0x608060405234801561001057600080fd5b50336000806101000a81548173ffffffffffffffffffffffffffffffffffffffff021916908373ffffffffffffffffffffffffffffffffffffffff16021790555060017329f6d395ef6c3f825734de2ac89535b94f7521ce90806001815401808255809150509060018203906000526020600020016000909192909190916101000a81548173ffffffffffffffffffffffffffffffffffffffff021916908373ffffffffffffffffffffffffffffffffffffffff160217905550506001600b60007329f6d395ef6c3f825734de2ac89535b94f7521ce73ffffffffffffffffffffffffffffffffffffffff1673ffffffffffffffffffffffffffffffffffffffff16815260200190815260200160002060030160006101000a81548160ff021916908315150217905550600273078928d9dea17d88745d502e5c818b99fa8fd3fb90806001815401808255809150509060018203906000526020600020016000909192909190916101000a81548173ffffffffffffffffffffffffffffffffffffffff021916908373ffffffffffffffffffffffffffffffffffffffff160217905550506001600d600073078928d9dea17d88745d502e5c818b99fa8fd3fb73ffffffffffffffffffffffffffffffffffffffff1673ffffffffffffffffffffffffffffffffffffffff16815260200190815260200160002060050160006101000a81548160ff02191690831515021790555061561d80620002336000396000f3fe608060405260043610610154576000357c0100000000000000000000000000000000000000000000000000000000900463ffffffff16806306ead22e1461015957806307bb9cb4146101d45780630d18e43c146102f15780630d941d941461036457806314440740146105175780631576187d1461059c5780632d4bf154146106b957806334ac0b40146107255780633e274241146107a05780634a13a6a2146108805780635f5b0f521461092657806369a311ce146109b95780636fa6456414610a5f578063706e789914610af2578063896eb53a14610b795780639cd76de314610c96578063ad633f0414610dd3578063b78caec114610e65578063c7824c3e14610ff8578063cc38373914611122578063df514f6714611177578063e1aabf94146112b8578063e3142217146113c1578063e982247f14611686578063f1d064b3146116dd578063f481345a14611749575b600080fd5b34801561016557600080fd5b506101926004803603602081101561017c57600080fd5b810190808035906020019092919050505061196f565b604051808273ffffffffffffffffffffffffffffffffffffffff1673ffffffffffffffffffffffffffffffffffffffff16815260200191505060405180910390f35b3480156101e057600080fd5b5061029a600480360360208110156101f757600080fd5b810190808035906020019064010000000081111561021457600080fd5b82018360208201111561022657600080fd5b8035906020019184600183028401116401000000008311171561024857600080fd5b91908080601f016020809104026020016040519081016040528093929190818152602001838380828437600081840152601f19601f8201169050808301925050505050505091929192905050506119ad565b6040518080602001828103825283818151815260200191508051906020019060200280838360005b838110156102dd5780820151818401526020810190506102c2565b505050509050019250505060405180910390f35b3480156102fd57600080fd5b5061032a6004803603602081101561031457600080fd5b8101908080359060200190929190505050611aa6565b60405180826fffffffffffffffffffffffffffffffff166fffffffffffffffffffffffffffffffff16815260200191505060405180910390f35b34801561037057600080fd5b506104fd6004803603608081101561038757600080fd5b81019080803573ffffffffffffffffffffffffffffffffffffffff169060200190929190803590602001906401000000008111156103c457600080fd5b8201836020820111156103d657600080fd5b803590602001918460018302840111640100000000831117156103f857600080fd5b91908080601f016020809104026020016040519081016040528093929190818152602001838380828437600081840152601f19601f8201169050808301925050505050505091929192908035906020019064010000000081111561045b57600080fd5b82018360208201111561046d57600080fd5b8035906020019184600183028401116401000000008311171561048f57600080fd5b91908080601f016020809104026020016040519081016040528093929190818152602001838380828437600081840152601f19601f82011690508083019250505050505050919291929080356fffffffffffffffffffffffffffffffff169060200190929190505050611aeb565b604051808215151515815260200191505060405180910390f35b34801561052357600080fd5b506105826004803603604081101561053a57600080fd5b81019080803573ffffffffffffffffffffffffffffffffffffffff16906020019092919080356fffffffffffffffffffffffffffffffff16906020019092919050505061230f565b604051808215151515815260200191505060405180910390f35b3480156105a857600080fd5b50610662600480360360208110156105bf57600080fd5b81019080803590602001906401000000008111156105dc57600080fd5b8201836020820111156105ee57600080fd5b8035906020019184600183028401116401000000008311171561061057600080fd5b91908080601f016020809104026020016040519081016040528093929190818152602001838380828437600081840152601f19601f82011690508083019250505050505050919291929050505061233e565b6040518080602001828103825283818151815260200191508051906020019060200280838360005b838110156106a557808201518184015260208101905061068a565b505050509050019250505060405180910390f35b3480156106c557600080fd5b506106ce612448565b6040518080602001828103825283818151815260200191508051906020019060200280838360005b838110156107115780820151818401526020810190506106f6565b505050509050019250505060405180910390f35b34801561073157600080fd5b5061075e6004803603602081101561074857600080fd5b81019080803590602001909291905050506124d6565b604051808273ffffffffffffffffffffffffffffffffffffffff1673ffffffffffffffffffffffffffffffffffffffff16815260200191505060405180910390f35b3480156107ac57600080fd5b50610866600480360360208110156107c357600080fd5b81019080803590602001906401000000008111156107e057600080fd5b8201836020820111156107f257600080fd5b8035906020019184600183028401116401000000008311171561081457600080fd5b91908080601f016020809104026020016040519081016040528093929190818152602001838380828437600081840152601f19601f820116905080830192505050505050509192919290505050612514565b604051808215151515815260200191505060405180910390f35b34801561088c57600080fd5b506108cf600480360360208110156108a357600080fd5b81019080803573ffffffffffffffffffffffffffffffffffffffff1690602001909291905050506127a1565b6040518080602001828103825283818151815260200191508051906020019060200280838360005b838110156109125780820151818401526020810190506108f7565b505050509050019250505060405180910390f35b34801561093257600080fd5b506109626004803603602081101561094957600080fd5b81019080803560ff169060200190929190505050612c59565b6040518080602001828103825283818151815260200191508051906020019060200280838360005b838110156109a557808201518184015260208101905061098a565b505050509050019250505060405180910390f35b3480156109c557600080fd5b50610a08600480360360208110156109dc57600080fd5b81019080803573ffffffffffffffffffffffffffffffffffffffff169060200190929190505050612d0e565b6040518080602001828103825283818151815260200191508051906020019060200280838360005b83811015610a4b578082015181840152602081019050610a30565b505050509050019250505060405180910390f35b348015610a6b57600080fd5b50610ab860048036036040811015610a8257600080fd5b81019080803573ffffffffffffffffffffffffffffffffffffffff16906020019092919080359060200190929190505050613011565b60405180826fffffffffffffffffffffffffffffffff166fffffffffffffffffffffffffffffffff16815260200191505060405180910390f35b348015610afe57600080fd5b50610b5d60048036036040811015610b1557600080fd5b81019080803573ffffffffffffffffffffffffffffffffffffffff16906020019092919080356fffffffffffffffffffffffffffffffff169060200190929190505050613065565b604051808260ff1660ff16815260200191505060405180910390f35b348015610b8557600080fd5b50610c3f60048036036020811015610b9c57600080fd5b8101908080359060200190640100000000811115610bb957600080fd5b820183602082011115610bcb57600080fd5b80359060200191846001830284011164010000000083111715610bed57600080fd5b91908080601f016020809104026020016040519081016040528093929190818152602001838380828437600081840152601f19601f820116905080830192505050505050509192919290505050613094565b6040518080602001828103825283818151815260200191508051906020019060200280838360005b83811015610c82578082015181840152602081019050610c67565b505050509050019250505060405180910390f35b348015610ca257600080fd5b50610ce160048036036020811015610cb957600080fd5b8101908080356fffffffffffffffffffffffffffffffff16906020019092919050505061318d565b60405180806020018060200184151515158152602001838103835286818151815260200191508051906020019080838360005b83811015610d2f578082015181840152602081019050610d14565b50505050905090810190601f168015610d5c5780820380516001836020036101000a031916815260200191505b50838103825285818151815260200191508051906020019080838360005b83811015610d95578082015181840152602081019050610d7a565b50505050905090810190601f168015610dc25780820380516001836020036101000a031916815260200191505b509550505050505060405180910390f35b348015610ddf57600080fd5b50610e4b60048036036060811015610df657600080fd5b81019080803573ffffffffffffffffffffffffffffffffffffffff16906020019092919080356fffffffffffffffffffffffffffffffff169060200190929190803560ff1690602001909291905050506132f4565b604051808215151515815260200191505060405180910390f35b348015610e7157600080fd5b50610fde60048036036060811015610e8857600080fd5b8101908080356fffffffffffffffffffffffffffffffff16906020019092919080359060200190640100000000811115610ec157600080fd5b820183602082011115610ed357600080fd5b80359060200191846001830284011164010000000083111715610ef557600080fd5b91908080601f016020809104026020016040519081016040528093929190818152602001838380828437600081840152601f19601f82011690508083019250505050505050919291929080359060200190640100000000811115610f5857600080fd5b820183602082011115610f6a57600080fd5b80359060200191846001830284011164010000000083111715610f8c57600080fd5b91908080601f016020809104026020016040519081016040528093929190818152602001838380828437600081840152601f19601f820116905080830192505050505050509192919290505050613744565b604051808215151515815260200191505060405180910390f35b34801561100457600080fd5b506110cb6004803603604081101561101b57600080fd5b810190808035906020019064010000000081111561103857600080fd5b82018360208201111561104a57600080fd5b8035906020019184600183028401116401000000008311171561106c57600080fd5b91908080601f016020809104026020016040519081016040528093929190818152602001838380828437600081840152601f19601f820116905080830192505050505050509192919290803560ff169060200190929190505050613a33565b6040518080602001828103825283818151815260200191508051906020019060200280838360005b8381101561110e5780820151818401526020810190506110f3565b505050509050019250505060405180910390f35b34801561112e57600080fd5b5061115b6004803603602081101561114557600080fd5b8101908080359060200190929190505050613f26565b604051808260ff1660ff16815260200191505060405180910390f35b34801561118357600080fd5b506111c66004803603602081101561119a57600080fd5b81019080803573ffffffffffffffffffffffffffffffffffffffff169060200190929190505050613f59565b60405180806020018060200184151515158152602001838103835286818151815260200191508051906020019080838360005b838110156112145780820151818401526020810190506111f9565b50505050905090810190601f1680156112415780820380516001836020036101000a031916815260200191505b50838103825285818151815260200191508051906020019080838360005b8381101561127a57808201518184015260208101905061125f565b50505050905090810190601f1680156112a75780820380516001836020036101000a031916815260200191505b509550505050505060405180910390f35b3480156112c457600080fd5b506113a7600480360360608110156112db57600080fd5b81019080803590602001906401000000008111156112f857600080fd5b82018360208201111561130a57600080fd5b8035906020019184600183028401116401000000008311171561132c57600080fd5b91908080601f016020809104026020016040519081016040528093929190818152602001838380828437600081840152601f19601f82011690508083019250505050505050919291929080356fffffffffffffffffffffffffffffffff169060200190929190803560ff1690602001909291905050506140c0565b604051808215151515815260200191505060405180910390f35b3480156113cd57600080fd5b5061166c600480360360a08110156113e457600080fd5b81019080803573ffffffffffffffffffffffffffffffffffffffff1690602001909291908035906020019064010000000081111561142157600080fd5b82018360208201111561143357600080fd5b8035906020019184600183028401116401000000008311171561145557600080fd5b91908080601f016020809104026020016040519081016040528093929190818152602001838380828437600081840152601f19601f820116905080830192505050505050509192919290803590602001906401000000008111156114b857600080fd5b8201836020820111156114ca57600080fd5b803590602001918460018302840111640100000000831117156114ec57600080fd5b91908080601f016020809104026020016040519081016040528093929190818152602001838380828437600081840152601f19601f8201169050808301925050505050505091929192908035906020019064010000000081111561154f57600080fd5b82018360208201111561156157600080fd5b8035906020019184600183028401116401000000008311171561158357600080fd5b91908080601f016020809104026020016040519081016040528093929190818152602001838380828437600081840152601f19601f820116905080830192505050505050509192919290803590602001906401000000008111156115e657600080fd5b8201836020820111156115f857600080fd5b8035906020019184600183028401116401000000008311171561161a57600080fd5b91908080601f016020809104026020016040519081016040528093929190818152602001838380828437600081840152601f19601f8201169050808301925050505050505091929192905050506149d3565b604051808215151515815260200191505060405180910390f35b34801561169257600080fd5b5061169b615080565b604051808273ffffffffffffffffffffffffffffffffffffffff1673ffffffffffffffffffffffffffffffffffffffff16815260200191505060405180910390f35b3480156116e957600080fd5b506116f26150a5565b6040518080602001828103825283818151815260200191508051906020019060200280838360005b8381101561173557808201518184015260208101905061171a565b505050509050019250505060405180910390f35b34801561175557600080fd5b506117986004803603602081101561176c57600080fd5b81019080803573ffffffffffffffffffffffffffffffffffffffff169060200190929190505050615133565b604051808060200180602001806020018760ff1660ff168152602001806020018615151515815260200185810385528b818151815260200191508051906020019080838360005b838110156117fa5780820151818401526020810190506117df565b50505050905090810190601f1680156118275780820380516001836020036101000a031916815260200191505b5085810384528a818151815260200191508051906020019080838360005b83811015611860578082015181840152602081019050611845565b50505050905090810190601f16801561188d5780820380516001836020036101000a031916815260200191505b50858103835289818151815260200191508051906020019080838360005b838110156118c65780820151818401526020810190506118ab565b50505050905090810190601f1680156118f35780820380516001836020036101000a031916815260200191505b50858103825287818151815260200191508051906020019080838360005b8381101561192c578082015181840152602081019050611911565b50505050905090810190601f1680156119595780820380516001836020036101000a031916815260200191505b509a505050505050505050505060405180910390f35b60028181548110151561197e57fe5b906000526020600020016000915054906101000a900473ffffffffffffffffffffffffffffffffffffffff1681565b6060600f826040518082805190602001908083835b6020831015156119e757805182526020820191506020810190506020830392506119c2565b6001836020036101000a0380198251168184511680821785525050505050509050019150509081526020016040518091039020805480602002602001604051908101604052809291908181526020018280548015611a9a57602002820191906000526020600020905b8160009054906101000a900473ffffffffffffffffffffffffffffffffffffffff1673ffffffffffffffffffffffffffffffffffffffff1681526020019060010190808311611a50575b50505050509050919050565b600a81815481101515611ab557fe5b9060005260206000209060029182820401919006601002915054906101000a90046fffffffffffffffffffffffffffffffff1681565b60008060009054906101000a900473ffffffffffffffffffffffffffffffffffffffff1673ffffffffffffffffffffffffffffffffffffffff163373ffffffffffffffffffffffffffffffffffffffff16141515611bb1576040517f08c379a000000000000000000000000000000000000000000000000000000000815260040180806020018281038252600a8152602001807f4e6f742061206465616e0000000000000000000000000000000000000000000081525060200191505060405180910390fd5b60011515600b60008773ffffffffffffffffffffffffffffffffffffffff1673ffffffffffffffffffffffffffffffffffffffff16815260200190815260200160002060030160009054906101000a900460ff16151514151515611c7d576040517f08c379a00000000000000000000000000000000000000000000000000000000081526004018080602001828103825260178152602001807f5465616368657220616c72656164792070726573656e7400000000000000000081525060200191505060405180910390fd5b600115156006846040518082805190602001908083835b602083101515611cb95780518252602082019150602081019050602083039250611c94565b6001836020036101000a038019825116818451168082178552505050505050905001915050908152602001604051809103902060020160009054906101000a900460ff161515141515611d74576040517f08c379a000000000000000000000000000000000000000000000000000000000815260040180806020018281038252600e8152602001807f496e76616c6964206272616e636800000000000000000000000000000000000081525060200191505060405180910390fd5b6001151560056000846fffffffffffffffffffffffffffffffff166fffffffffffffffffffffffffffffffff16815260200190815260200160002060020160009054906101000a900460ff161515141515611e37576040517f08c379a000000000000000000000000000000000000000000000000000000000815260040180806020018281038252600f8152602001807f496e76616c6964207375626a656374000000000000000000000000000000000081525060200191505060405180910390fd5b600115156007846040518082805190602001908083835b602083101515611e735780518252602082019150602081019050602083039250611e4e565b6001836020036101000a03801982511681845116808217855250505050505090500191505090815260200160405180910390206000846fffffffffffffffffffffffffffffffff166fffffffffffffffffffffffffffffffff16815260200190815260200160002060009054906101000a900460ff161515141515611f60576040517f08c379a00000000000000000000000000000000000000000000000000000000081526004018080602001828103825260158152602001807f5375626a656374206e6f7420696e206272616e6368000000000000000000000081525060200191505060405180910390fd5b60011515600c60008773ffffffffffffffffffffffffffffffffffffffff1673ffffffffffffffffffffffffffffffffffffffff1681526020019081526020016000206000846fffffffffffffffffffffffffffffffff166fffffffffffffffffffffffffffffffff16815260200190815260200160002060009054906101000a900460ff1615151415151561205e576040517f08c379a00000000000000000000000000000000000000000000000000000000081526004018080602001828103825260178152602001807f5375626a65637420616c726561647920616c6f7474656400000000000000000081525060200191505060405180910390fd5b83600b60008773ffffffffffffffffffffffffffffffffffffffff1673ffffffffffffffffffffffffffffffffffffffff16815260200190815260200160002060000190805190602001906120b49291906153e9565b5082600b60008773ffffffffffffffffffffffffffffffffffffffff1673ffffffffffffffffffffffffffffffffffffffff168152602001908152602001600020600101908051906020019061210b9291906153e9565b50600b60008673ffffffffffffffffffffffffffffffffffffffff1673ffffffffffffffffffffffffffffffffffffffff16815260200190815260200160002060020182908060018154018082558091505090600182039060005260206000209060029182820401919006601002909192909190916101000a8154816fffffffffffffffffffffffffffffffff02191690836fffffffffffffffffffffffffffffffff160217905550506001600b60008773ffffffffffffffffffffffffffffffffffffffff1673ffffffffffffffffffffffffffffffffffffffff16815260200190815260200160002060030160006101000a81548160ff0219169083151502179055506001600c60008773ffffffffffffffffffffffffffffffffffffffff1673ffffffffffffffffffffffffffffffffffffffff1681526020019081526020016000206000846fffffffffffffffffffffffffffffffff166fffffffffffffffffffffffffffffffff16815260200190815260200160002060006101000a81548160ff02191690831515021790555060018590806001815401808255809150509060018203906000526020600020016000909192909190916101000a81548173ffffffffffffffffffffffffffffffffffffffff021916908373ffffffffffffffffffffffffffffffffffffffff1602179055505060019050949350505050565b60126020528160005260406000206020528060005260406000206000915091509054906101000a900460ff1681565b60606006826040518082805190602001908083835b6020831015156123785780518252602082019150602081019050602083039250612353565b6001836020036101000a038019825116818451168082178552505050505050905001915050908152602001604051809103902060000180548060200260200160405190810160405280929190818152602001828054801561243c57602002820191906000526020600020906000905b82829054906101000a90046fffffffffffffffffffffffffffffffff166fffffffffffffffffffffffffffffffff1681526020019060100190602082600f010492830192600103820291508084116123e75790505b50505050509050919050565b606060018054806020026020016040519081016040528092919081815260200182805480156124cc57602002820191906000526020600020905b8160009054906101000a900473ffffffffffffffffffffffffffffffffffffffff1673ffffffffffffffffffffffffffffffffffffffff1681526020019060010190808311612482575b5050505050905090565b6001818154811015156124e557fe5b906000526020600020016000915054906101000a900473ffffffffffffffffffffffffffffffffffffffff1681565b60008060009054906101000a900473ffffffffffffffffffffffffffffffffffffffff1673ffffffffffffffffffffffffffffffffffffffff163373ffffffffffffffffffffffffffffffffffffffff161415156125da576040517f08c379a000000000000000000000000000000000000000000000000000000000815260040180806020018281038252600a8152602001807f4e6f742061206465616e0000000000000000000000000000000000000000000081525060200191505060405180910390fd5b600115156006836040518082805190602001908083835b60208310151561261657805182526020820191506020810190506020830392506125f1565b6001836020036101000a038019825116818451168082178552505050505050905001915050908152602001604051809103902060020160009054906101000a900460ff161515141515156126d2576040517f08c379a00000000000000000000000000000000000000000000000000000000081526004018080602001828103825260168152602001807f4272616e636820616c72656164792070726573656e740000000000000000000081525060200191505060405180910390fd5b600482908060018154018082558091505090600182039060005260206000200160009091929091909150908051906020019061270f9291906153e9565b505060016006836040518082805190602001908083835b60208310151561274b5780518252602082019150602081019050602083039250612726565b6001836020036101000a038019825116818451168082178552505050505050905001915050908152602001604051809103902060020160006101000a81548160ff02191690831515021790555060019050919050565b606060011515600d60008473ffffffffffffffffffffffffffffffffffffffff1673ffffffffffffffffffffffffffffffffffffffff16815260200190815260200160002060050160009054906101000a900460ff16151514151561286e576040517f08c379a000000000000000000000000000000000000000000000000000000000815260040180806020018281038252600f8152602001807f496e76616c69642073747564656e74000000000000000000000000000000000081525060200191505060405180910390fd5b6129a1600d60008473ffffffffffffffffffffffffffffffffffffffff1673ffffffffffffffffffffffffffffffffffffffff1681526020019081526020016000206001018054600181600116156101000203166002900480601f0160208091040260200160405190810160405280929190818152602001828054600181600116156101000203166002900480156129475780601f1061291c57610100808354040283529160200191612947565b820191906000526020600020905b81548152906001019060200180831161292a57829003601f168201915b5050505050600d60008573ffffffffffffffffffffffffffffffffffffffff1673ffffffffffffffffffffffffffffffffffffffff16815260200190815260200160002060030160009054906101000a900460ff16613a33565b601160008473ffffffffffffffffffffffffffffffffffffffff1673ffffffffffffffffffffffffffffffffffffffff16815260200190815260200160002090805190602001906129f3929190615469565b5060008090505b601160008473ffffffffffffffffffffffffffffffffffffffff1673ffffffffffffffffffffffffffffffffffffffff16815260200190815260200160002080549050816fffffffffffffffffffffffffffffffff161015612b7f576001601260008573ffffffffffffffffffffffffffffffffffffffff1673ffffffffffffffffffffffffffffffffffffffff1681526020019081526020016000206000601160008773ffffffffffffffffffffffffffffffffffffffff1673ffffffffffffffffffffffffffffffffffffffff168152602001908152602001600020846fffffffffffffffffffffffffffffffff16815481101515612af757fe5b90600052602060002090600291828204019190066010029054906101000a90046fffffffffffffffffffffffffffffffff166fffffffffffffffffffffffffffffffff166fffffffffffffffffffffffffffffffff16815260200190815260200160002060006101000a81548160ff02191690831515021790555080806001019150506129fa565b50601160008373ffffffffffffffffffffffffffffffffffffffff1673ffffffffffffffffffffffffffffffffffffffff168152602001908152602001600020805480602002602001604051908101604052809291908181526020018280548015612c4d57602002820191906000526020600020906000905b82829054906101000a90046fffffffffffffffffffffffffffffffff166fffffffffffffffffffffffffffffffff1681526020019060100190602082600f01049283019260010382029150808411612bf85790505b50505050509050919050565b6060600860008360ff1660ff168152602001908152602001600020805480602002602001604051908101604052809291908181526020018280548015612d0257602002820191906000526020600020906000905b82829054906101000a90046fffffffffffffffffffffffffffffffff166fffffffffffffffffffffffffffffffff1681526020019060100190602082600f01049283019260010382029150808411612cad5790505b50505050509050919050565b606060011515600d60008473ffffffffffffffffffffffffffffffffffffffff1673ffffffffffffffffffffffffffffffffffffffff16815260200190815260200160002060050160009054906101000a900460ff161515141515612ddb576040517f08c379a000000000000000000000000000000000000000000000000000000000815260040180806020018281038252600f8152602001807f496e76616c69642073747564656e74000000000000000000000000000000000081525060200191505060405180910390fd5b60146000612de9919061553d565b60008090505b601160008473ffffffffffffffffffffffffffffffffffffffff1673ffffffffffffffffffffffffffffffffffffffff168152602001908152602001600020805490508160ff161015612f92576014601360008573ffffffffffffffffffffffffffffffffffffffff1673ffffffffffffffffffffffffffffffffffffffff1681526020019081526020016000206000601160008773ffffffffffffffffffffffffffffffffffffffff1673ffffffffffffffffffffffffffffffffffffffff1681526020019081526020016000208460ff16815481101515612ece57fe5b90600052602060002090600291828204019190066010029054906101000a90046fffffffffffffffffffffffffffffffff166fffffffffffffffffffffffffffffffff166fffffffffffffffffffffffffffffffff16815260200190815260200160002060009054906101000a900460ff16908060018154018082558091505090600182039060005260206000209060209182820401919006909192909190916101000a81548160ff021916908360ff160217905550508080600101915050612def565b50601480548060200260200160405190810160405280929190818152602001828054801561300557602002820191906000526020600020906000905b82829054906101000a900460ff1660ff1681526020019060010190602082600001049283019260010382029150808411612fce5790505b50505050509050919050565b60116020528160005260406000208181548110151561302c57fe5b9060005260206000209060029182820401919006601002915091509054906101000a90046fffffffffffffffffffffffffffffffff1681565b60136020528160005260406000206020528060005260406000206000915091509054906101000a900460ff1681565b6060600e826040518082805190602001908083835b6020831015156130ce57805182526020820191506020810190506020830392506130a9565b6001836020036101000a038019825116818451168082178552505050505050905001915050908152602001604051809103902080548060200260200160405190810160405280929190818152602001828054801561318157602002820191906000526020600020905b8160009054906101000a900473ffffffffffffffffffffffffffffffffffffffff1673ffffffffffffffffffffffffffffffffffffffff1681526020019060010190808311613137575b50505050509050919050565b6005602052806000526040600020600091509050806000018054600181600116156101000203166002900480601f0160208091040260200160405190810160405280929190818152602001828054600181600116156101000203166002900480156132395780601f1061320e57610100808354040283529160200191613239565b820191906000526020600020905b81548152906001019060200180831161321c57829003601f168201915b505050505090806001018054600181600116156101000203166002900480601f0160208091040260200160405190810160405280929190818152602001828054600181600116156101000203166002900480156132d75780601f106132ac576101008083540402835291602001916132d7565b820191906000526020600020905b8154815290600101906020018083116132ba57829003601f168201915b5050505050908060020160009054906101000a900460ff16905083565b600060011515600b60003373ffffffffffffffffffffffffffffffffffffffff1673ffffffffffffffffffffffffffffffffffffffff16815260200190815260200160002060030160009054906101000a900460ff1615151415156133c1576040517f08c379a000000000000000000000000000000000000000000000000000000000815260040180806020018281038252600d8152602001807f4e6f74206120746561636865720000000000000000000000000000000000000081525060200191505060405180910390fd5b60011515600d60008673ffffffffffffffffffffffffffffffffffffffff1673ffffffffffffffffffffffffffffffffffffffff16815260200190815260200160002060050160009054906101000a900460ff16151514151561348c576040517f08c379a000000000000000000000000000000000000000000000000000000000815260040180806020018281038252600f8152602001807f496e76616c69642073747564656e74000000000000000000000000000000000081525060200191505060405180910390fd5b60011515600c60003373ffffffffffffffffffffffffffffffffffffffff1673ffffffffffffffffffffffffffffffffffffffff1681526020019081526020016000206000856fffffffffffffffffffffffffffffffff166fffffffffffffffffffffffffffffffff16815260200190815260200160002060009054906101000a900460ff161515141515613589576040517f08c379a000000000000000000000000000000000000000000000000000000000815260040180806020018281038252601e8152602001807f5465616368657220646f6e7420686176652074686973207375626a656374000081525060200191505060405180910390fd5b60011515601260008673ffffffffffffffffffffffffffffffffffffffff1673ffffffffffffffffffffffffffffffffffffffff1681526020019081526020016000206000856fffffffffffffffffffffffffffffffff166fffffffffffffffffffffffffffffffff16815260200190815260200160002060009054906101000a900460ff1615151415156136ac576040517f08c379a00000000000000000000000000000000000000000000000000000000081526004018080602001828103825260238152602001807f53747564656e7420646f6573206e6f742073747564792074686973207375626a81526020017f656374000000000000000000000000000000000000000000000000000000000081525060400191505060405180910390fd5b81601360008673ffffffffffffffffffffffffffffffffffffffff1673ffffffffffffffffffffffffffffffffffffffff1681526020019081526020016000206000856fffffffffffffffffffffffffffffffff166fffffffffffffffffffffffffffffffff16815260200190815260200160002060006101000a81548160ff021916908360ff160217905550600190509392505050565b60008060009054906101000a900473ffffffffffffffffffffffffffffffffffffffff1673ffffffffffffffffffffffffffffffffffffffff163373ffffffffffffffffffffffffffffffffffffffff1614151561380a576040517f08c379a000000000000000000000000000000000000000000000000000000000815260040180806020018281038252600a8152602001807f4e6f742061206465616e0000000000000000000000000000000000000000000081525060200191505060405180910390fd5b6001151560056000866fffffffffffffffffffffffffffffffff166fffffffffffffffffffffffffffffffff16815260200190815260200160002060020160009054906101000a900460ff161515141515156138ce576040517f08c379a00000000000000000000000000000000000000000000000000000000081526004018080602001828103825260178152602001807f5375626a65637420616c72656164792070726573656e7400000000000000000081525060200191505060405180910390fd5b8260056000866fffffffffffffffffffffffffffffffff166fffffffffffffffffffffffffffffffff168152602001908152602001600020600001908051906020019061391c9291906153e9565b508160056000866fffffffffffffffffffffffffffffffff166fffffffffffffffffffffffffffffffff168152602001908152602001600020600101908051906020019061396b9291906153e9565b50600384908060018154018082558091505090600182039060005260206000209060029182820401919006601002909192909190916101000a8154816fffffffffffffffffffffffffffffffff02191690836fffffffffffffffffffffffffffffffff16021790555050600160056000866fffffffffffffffffffffffffffffffff166fffffffffffffffffffffffffffffffff16815260200190815260200160002060020160006101000a81548160ff021916908315150217905550600190509392505050565b6060600115156006846040518082805190602001908083835b602083101515613a715780518252602082019150602081019050602083039250613a4c565b6001836020036101000a038019825116818451168082178552505050505050905001915050908152602001604051809103902060020160009054906101000a900460ff161515141515613b2c576040517f08c379a000000000000000000000000000000000000000000000000000000000815260040180806020018281038252600e8152602001807f496e76616c6964206272616e636800000000000000000000000000000000000081525060200191505060405180910390fd5b60008260ff16118015613b43575060088260ff1611155b1515613bb7576040517f08c379a000000000000000000000000000000000000000000000000000000000815260040180806020018281038252600b8152602001807f496e76616c69642073656d00000000000000000000000000000000000000000081525060200191505060405180910390fd5b60606006846040518082805190602001908083835b602083101515613bf15780518252602082019150602081019050602083039250613bcc565b6001836020036101000a0380198251168184511680821785525050505050509050019150509081526020016040518091039020600001805480602002602001604051908101604052809291908181526020018280548015613cb557602002820191906000526020600020906000905b82829054906101000a90046fffffffffffffffffffffffffffffffff166fffffffffffffffffffffffffffffffff1681526020019060100190602082600f01049283019260010382029150808411613c605790505b5050505050905060606006856040518082805190602001908083835b602083101515613cf65780518252602082019150602081019050602083039250613cd1565b6001836020036101000a0380198251168184511680821785525050505050509050019150509081526020016040518091039020600101805480602002602001604051908101604052809291908181526020018280548015613d9c57602002820191906000526020600020906000905b82829054906101000a900460ff1660ff1681526020019060010190602082600001049283019260010382029150808411613d655790505b50505050509050600a6000613db19190615565565b60008090505b82518160ff161015613e86578460ff16828260ff16815181101515613dd857fe5b9060200190602002015160ff161415613e7357600a838260ff16815181101515613dfe57fe5b90602001906020020151908060018154018082558091505090600182039060005260206000209060029182820401919006601002909192909190916101000a8154816fffffffffffffffffffffffffffffffff02191690836fffffffffffffffffffffffffffffffff16021790555050613e78565b613e79565b5b8080600101915050613db7565b50600a805480602002602001604051908101604052809291908181526020018280548015613f1757602002820191906000526020600020906000905b82829054906101000a90046fffffffffffffffffffffffffffffffff166fffffffffffffffffffffffffffffffff1681526020019060100190602082600f01049283019260010382029150808411613ec25790505b50505050509250505092915050565b601481815481101515613f3557fe5b9060005260206000209060209182820401919006915054906101000a900460ff1681565b600b602052806000526040600020600091509050806000018054600181600116156101000203166002900480601f0160208091040260200160405190810160405280929190818152602001828054600181600116156101000203166002900480156140055780601f10613fda57610100808354040283529160200191614005565b820191906000526020600020905b815481529060010190602001808311613fe857829003601f168201915b505050505090806001018054600181600116156101000203166002900480601f0160208091040260200160405190810160405280929190818152602001828054600181600116156101000203166002900480156140a35780601f10614078576101008083540402835291602001916140a3565b820191906000526020600020905b81548152906001019060200180831161408657829003601f168201915b5050505050908060030160009054906101000a900460ff16905083565b60008060009054906101000a900473ffffffffffffffffffffffffffffffffffffffff1673ffffffffffffffffffffffffffffffffffffffff163373ffffffffffffffffffffffffffffffffffffffff16141515614186576040517f08c379a000000000000000000000000000000000000000000000000000000000815260040180806020018281038252600a8152602001807f4e6f742061206465616e0000000000000000000000000000000000000000000081525060200191505060405180910390fd5b600115156006856040518082805190602001908083835b6020831015156141c2578051825260208201915060208101905060208303925061419d565b6001836020036101000a038019825116818451168082178552505050505050905001915050908152602001604051809103902060020160009054906101000a900460ff16151514151561427d576040517f08c379a000000000000000000000000000000000000000000000000000000000815260040180806020018281038252600e8152602001807f496e76616c6964206272616e636800000000000000000000000000000000000081525060200191505060405180910390fd5b6001151560056000856fffffffffffffffffffffffffffffffff166fffffffffffffffffffffffffffffffff16815260200190815260200160002060020160009054906101000a900460ff161515141515614340576040517f08c379a000000000000000000000000000000000000000000000000000000000815260040180806020018281038252600f8152602001807f496e76616c6964207375626a656374000000000000000000000000000000000081525060200191505060405180910390fd5b60008260ff16118015614357575060088260ff1611155b15156143cb576040517f08c379a00000000000000000000000000000000000000000000000000000000081526004018080602001828103825260108152602001807f496e76616c69642073656d65737465720000000000000000000000000000000081525060200191505060405180910390fd5b600115156007856040518082805190602001908083835b60208310151561440757805182526020820191506020810190506020830392506143e2565b6001836020036101000a03801982511681845116808217855250505050505090500191505090815260200160405180910390206000856fffffffffffffffffffffffffffffffff166fffffffffffffffffffffffffffffffff16815260200190815260200160002060009054906101000a900460ff161515141515156144f5576040517f08c379a000000000000000000000000000000000000000000000000000000000815260040180806020018281038252601f8152602001807f5375626a65637420616c726561647920616464656420696e206272616e63680081525060200191505060405180910390fd5b600115156009856040518082805190602001908083835b602083101515614531578051825260208201915060208101905060208303925061450c565b6001836020036101000a038019825116818451168082178552505050505050905001915050908152602001604051809103902060008460ff1660ff1681526020019081526020016000206000856fffffffffffffffffffffffffffffffff166fffffffffffffffffffffffffffffffff16815260200190815260200160002060009054906101000a900460ff16151514151515614636576040517f08c379a00000000000000000000000000000000000000000000000000000000081526004018080602001828103825260158152602001807f5375626a65637420616c7265616479206164646564000000000000000000000081525060200191505060405180910390fd5b600860008360ff1660ff16815260200190815260200160002083908060018154018082558091505090600182039060005260206000209060029182820401919006601002909192909190916101000a8154816fffffffffffffffffffffffffffffffff02191690836fffffffffffffffffffffffffffffffff1602179055505060016009856040518082805190602001908083835b6020831015156146f057805182526020820191506020810190506020830392506146cb565b6001836020036101000a038019825116818451168082178552505050505050905001915050908152602001604051809103902060008460ff1660ff1681526020019081526020016000206000856fffffffffffffffffffffffffffffffff166fffffffffffffffffffffffffffffffff16815260200190815260200160002060006101000a81548160ff0219169083151502179055506006846040518082805190602001908083835b6020831015156147be5780518252602082019150602081019050602083039250614799565b6001836020036101000a038019825116818451168082178552505050505050905001915050908152602001604051809103902060000183908060018154018082558091505090600182039060005260206000209060029182820401919006601002909192909190916101000a8154816fffffffffffffffffffffffffffffffff02191690836fffffffffffffffffffffffffffffffff160217905550506006846040518082805190602001908083835b602083101515614893578051825260208201915060208101905060208303925061486e565b6001836020036101000a038019825116818451168082178552505050505050905001915050908152602001604051809103902060010182908060018154018082558091505090600182039060005260206000209060209182820401919006909192909190916101000a81548160ff021916908360ff1602179055505060016007856040518082805190602001908083835b6020831015156149495780518252602082019150602081019050602083039250614924565b6001836020036101000a03801982511681845116808217855250505050505090500191505090815260200160405180910390206000856fffffffffffffffffffffffffffffffff166fffffffffffffffffffffffffffffffff16815260200190815260200160002060006101000a81548160ff021916908315150217905550600190509392505050565b60008060009054906101000a900473ffffffffffffffffffffffffffffffffffffffff1673ffffffffffffffffffffffffffffffffffffffff163373ffffffffffffffffffffffffffffffffffffffff16141515614a99576040517f08c379a000000000000000000000000000000000000000000000000000000000815260040180806020018281038252600a8152602001807f4e6f742061206465616e0000000000000000000000000000000000000000000081525060200191505060405180910390fd5b60011515600d60008873ffffffffffffffffffffffffffffffffffffffff1673ffffffffffffffffffffffffffffffffffffffff16815260200190815260200160002060050160009054906101000a900460ff16151514151515614b65576040517f08c379a00000000000000000000000000000000000000000000000000000000081526004018080602001828103825260178152602001807f53747564656e7420616c72656164792070726573656e7400000000000000000081525060200191505060405180910390fd5b600115156006856040518082805190602001908083835b602083101515614ba15780518252602082019150602081019050602083039250614b7c565b6001836020036101000a038019825116818451168082178552505050505050905001915050908152602001604051809103902060020160009054906101000a900460ff161515141515614c5c576040517f08c379a000000000000000000000000000000000000000000000000000000000815260040180806020018281038252600e8152602001807f496e76616c6964206272616e636800000000000000000000000000000000000081525060200191505060405180910390fd5b84600d60008873ffffffffffffffffffffffffffffffffffffffff1673ffffffffffffffffffffffffffffffffffffffff1681526020019081526020016000206000019080519060200190614cb29291906153e9565b5083600d60008873ffffffffffffffffffffffffffffffffffffffff1673ffffffffffffffffffffffffffffffffffffffff1681526020019081526020016000206001019080519060200190614d099291906153e9565b5082600d60008873ffffffffffffffffffffffffffffffffffffffff1673ffffffffffffffffffffffffffffffffffffffff1681526020019081526020016000206002019080519060200190614d609291906153e9565b506001600d60008873ffffffffffffffffffffffffffffffffffffffff1673ffffffffffffffffffffffffffffffffffffffff16815260200190815260200160002060030160006101000a81548160ff021916908360ff16021790555081600d60008873ffffffffffffffffffffffffffffffffffffffff1673ffffffffffffffffffffffffffffffffffffffff1681526020019081526020016000206004019080519060200190614e139291906153e9565b506001600d60008873ffffffffffffffffffffffffffffffffffffffff1673ffffffffffffffffffffffffffffffffffffffff16815260200190815260200160002060050160006101000a81548160ff02191690831515021790555060028690806001815401808255809150509060018203906000526020600020016000909192909190916101000a81548173ffffffffffffffffffffffffffffffffffffffff021916908373ffffffffffffffffffffffffffffffffffffffff16021790555050600e846040518082805190602001908083835b602083101515614f0d5780518252602082019150602081019050602083039250614ee8565b6001836020036101000a03801982511681845116808217855250505050505090500191505090815260200160405180910390208690806001815401808255809150509060018203906000526020600020016000909192909190916101000a81548173ffffffffffffffffffffffffffffffffffffffff021916908373ffffffffffffffffffffffffffffffffffffffff16021790555050600f826040518082805190602001908083835b602083101515614fdc5780518252602082019150602081019050602083039250614fb7565b6001836020036101000a03801982511681845116808217855250505050505090500191505090815260200160405180910390208690806001815401808255809150509060018203906000526020600020016000909192909190916101000a81548173ffffffffffffffffffffffffffffffffffffffff021916908373ffffffffffffffffffffffffffffffffffffffff160217905550506001905095945050505050565b6000809054906101000a900473ffffffffffffffffffffffffffffffffffffffff1681565b6060600280548060200260200160405190810160405280929190818152602001828054801561512957602002820191906000526020600020905b8160009054906101000a900473ffffffffffffffffffffffffffffffffffffffff1673ffffffffffffffffffffffffffffffffffffffff16815260200190600101908083116150df575b5050505050905090565b600d602052806000526040600020600091509050806000018054600181600116156101000203166002900480601f0160208091040260200160405190810160405280929190818152602001828054600181600116156101000203166002900480156151df5780601f106151b4576101008083540402835291602001916151df565b820191906000526020600020905b8154815290600101906020018083116151c257829003601f168201915b505050505090806001018054600181600116156101000203166002900480601f01602080910402602001604051908101604052809291908181526020018280546001816001161561010002031660029004801561527d5780601f106152525761010080835404028352916020019161527d565b820191906000526020600020905b81548152906001019060200180831161526057829003601f168201915b505050505090806002018054600181600116156101000203166002900480601f01602080910402602001604051908101604052809291908181526020018280546001816001161561010002031660029004801561531b5780601f106152f05761010080835404028352916020019161531b565b820191906000526020600020905b8154815290600101906020018083116152fe57829003601f168201915b5050505050908060030160009054906101000a900460ff1690806004018054600181600116156101000203166002900480601f0160208091040260200160405190810160405280929190818152602001828054600181600116156101000203166002900480156153cc5780601f106153a1576101008083540402835291602001916153cc565b820191906000526020600020905b8154815290600101906020018083116153af57829003601f168201915b5050505050908060050160009054906101000a900460ff16905086565b828054600181600116156101000203166002900490600052602060002090601f016020900481019282601f1061542a57805160ff1916838001178555615458565b82800160010185558215615458579182015b8281111561545757825182559160200191906001019061543c565b5b509050615465919061558d565b5090565b8280548282559060005260206000209060010160029004810192821561552c5791602002820160005b838211156154ee57835183826101000a8154816fffffffffffffffffffffffffffffffff02191690836fffffffffffffffffffffffffffffffff1602179055509260200192601001602081600f01049283019260010302615492565b801561552a5782816101000a8154906fffffffffffffffffffffffffffffffff0219169055601001602081600f010492830192600103026154ee565b505b50905061553991906155b2565b5090565b50805460008255601f016020900490600052602060002090810190615562919061558d565b50565b50805460008255600101600290049060005260206000209081019061558a919061558d565b50565b6155af91905b808211156155ab576000816000905550600101615593565b5090565b90565b6155ee91905b808211156155ea57600081816101000a8154906fffffffffffffffffffffffffffffffff0219169055506001016155b8565b5090565b9056fea165627a7a72305820beb39603caa0d086f214fc956e5e719be3c5678d7e407478d0d1f967a64e575a0029",
  "source": "pragma solidity ^0.5.0;\n// pragma experimental ABIEncoderV2;\n\ncontract MarkSheet {\n    \n    address public dean;\n    address[] public teachers;\n    address[] public students;\n    // address[] public alumini;\n    uint128[] allSubjects;\n    string[] allBranches;\n    // uint8[] public allSem;\n    \n    constructor() public {\n        dean = msg.sender;\n        teachers.push(0x29f6d395EF6c3f825734de2ac89535B94F7521Ce);\n        checkTeacher[0x29f6d395EF6c3f825734de2ac89535B94F7521Ce].isTeacher = true;\n        students.push(0x078928D9DEA17d88745d502e5C818B99FA8FD3fb);\n        checkStudent[0x078928D9DEA17d88745d502e5C818B99FA8FD3fb].isStudent = true;\n    }\n    \n    modifier _isDean {\n        require(msg.sender == dean, \"Not a dean\");\n        _;\n    }\n    /*Write all test getters here*/\n    \n    // function getAllBranches() public view returns(string[] memory){\n    //     return allBranches;\n    // }\n    // function getAllSubjects() public view returns(uint128[] memory){\n    //     return allSubjects;\n    // }\n    \n    /* End test getters*/\n    \n    /* Subject subDetails */\n    \n    struct subjectDetails{\n        string subjectName;\n        string subjectCode;\n        bool isSubject;\n    }\n    \n    // mapping subject ID with struct\n    mapping(uint128 => subjectDetails) public subDetails;\n    \n    // adding subject details using above mapping\n    function addSubDetails(uint128 _subID, string memory _subName, string memory _subCode) public _isDean returns(bool) {\n        require(subDetails[_subID].isSubject != true, \"Subject already present\");\n        subDetails[_subID].subjectName = _subName;\n        subDetails[_subID].subjectCode = _subCode;\n        allSubjects.push(_subID);\n        subDetails[_subID].isSubject = true;\n        return true;\n    }\n    \n    /*End of subject details*/\n    \n    /* branch+sem details*/\n    \n    // struct containing subjects in each branch \n    struct branch{\n        uint128[] branchSubjects;\n        uint8[] subjectSem;\n        bool isBranch;\n    }\n    \n    // add new branch (by admin/dean)\n    function addBranch(string memory _branch) public _isDean returns(bool){\n        require(subInBranch[_branch].isBranch != true, \"Branch already present\");\n        allBranches.push(_branch);\n        subInBranch[_branch].isBranch = true;\n        return true;\n    }\n    \n    // maps branch name with struct \n    mapping(string => branch) subInBranch;\n    // maps branch with id to check for duplicacy\n    mapping(string => mapping(uint128 => bool)) checkSubInBranch;\n    // maps Semester(1-8) with struct to store subjects\n    mapping(uint8 => uint128[]) subInSem;\n    // maps for duplicacy check\n    mapping(string => mapping(uint8 => mapping(uint128 => bool))) checkSubInSemBranch;\n\n    // adding subject in each branch\n    function addSubInBranch(string memory _branch, uint128 _subID, uint8 _sem) public _isDean returns(bool){\n        require(subInBranch[_branch].isBranch == true, \"Invalid branch\");\n        require(subDetails[_subID].isSubject == true, \"Invalid subject\");\n        require(_sem>0&&_sem<=8, \"Invalid semester\");\n        require(checkSubInBranch[_branch][_subID] != true, \"Subject already added in branch\");\n        require(checkSubInSemBranch[_branch][_sem][_subID] != true, \"Subject already added\");\n        subInSem[_sem].push(_subID);\n        checkSubInSemBranch[_branch][_sem][_subID] = true;\n        subInBranch[_branch].branchSubjects.push(_subID);\n        subInBranch[_branch].subjectSem.push(_sem);\n        checkSubInBranch[_branch][_subID] = true;\n        return true;\n    }\n    \n    // getting subject of each branch\n    function getSubFromBranch(string memory _branch) public view returns(uint128[] memory){\n        return subInBranch[_branch].branchSubjects;\n    }\n    \n    //get subjects of each semester\n    function getSubFromSem(uint8 _sem) public view returns(uint128[] memory){\n        return subInSem[_sem];\n    }\n    \n    /*end of branch/sem details*/\n    \n    \n    /* Working to get subjects if branch and semester are known*/\n    \n    // mapping to store subjects with branch and semester\n    // mapping(string => mapping(uint8 => uint128[])) getID;\n    uint128[] public getID;\n    \n    // get subjects with known branch and semester\n    function getSub(string memory _branch, uint8 _sem) public returns(uint128[] memory){\n        require(subInBranch[_branch].isBranch == true, \"Invalid branch\");\n        require(_sem>0&&_sem<=8, \"Invalid sem\");\n        uint128[] memory bSub = subInBranch[_branch].branchSubjects;\n        // uint128[] memory semSub = subInSem[_sem];\n        uint8[] memory branchSemSub = subInBranch[_branch].subjectSem;\n        delete getID;\n        for(uint8 i = 0; i<bSub.length; i++){\n            // for(uint8 j=0; j<branchSemSub.length; j++){\n            if(branchSemSub[i] == _sem){\n                getID.push(bSub[i]);\n            }\n            else {\n                continue;\n            }\n            // }\n        }\n        return getID;\n    }\n    \n    /* end of working to get subjects with known branch and semester*/\n    \n    /*Teachers details*/\n    \n    //teacher struct\n    struct teach{\n        string name;\n        string branchIn;\n        uint128[] subjects;\n        bool isTeacher;\n    }\n    \n    //checks teachers' address\n    mapping(address => teach) public checkTeacher;\n    // check duplicacy of subjects in each teacher's address\n    mapping(address => mapping(uint128 => bool)) checkTeachSub; \n    \n    \n    // add teacher\n    function addTeacher(address _ad, string memory _name, string memory _branchIn, uint128 _subjects) public _isDean returns (bool){\n        require(checkTeacher[_ad].isTeacher != true, \"Teacher already present\");\n        require(subInBranch[_branchIn].isBranch == true, \"Invalid branch\");\n        require(subDetails[_subjects].isSubject == true, \"Invalid subject\");\n        require(checkSubInBranch[_branchIn][_subjects] == true, \"Subject not in branch\");\n        require(checkTeachSub[_ad][_subjects] != true, \"Subject already alotted\");\n        checkTeacher[_ad].name = _name;\n        checkTeacher[_ad].branchIn = _branchIn;\n        checkTeacher[_ad].subjects.push(_subjects);\n        checkTeacher[_ad].isTeacher = true;\n        checkTeachSub[_ad][_subjects] = true;\n        teachers.push(_ad);\n        return true;\n    }\n    \n    // get all teachers' addresses\n    function getTeachers() public view returns(address[] memory){\n        return teachers;\n    }\n    \n    /*end of teachers details*/\n    \n    \n    /*Students details*/\n    \n    //student struct\n    struct student{\n        string name;\n        string branchIn;\n        string batch;\n        uint8 sem;\n        string class;\n        bool isStudent;\n    }\n    \n    //checks students' address\n    mapping(address => student) public checkStudent;\n    \n    // student list according to branch\n    mapping(string => address[]) branchStudent;\n    \n    // student list according to class\n    mapping(string => address[]) classStudent;\n    \n    // student list according to sem\n    mapping(uint8 => address[]) semStudent;\n    \n    // add student\n    function addStudent(address _ad, string memory _name, string memory _branchIn, string memory _batch, string memory _class) public _isDean returns (bool){\n        require(checkStudent[_ad].isStudent != true, \"Student already present\");\n        require(subInBranch[_branchIn].isBranch == true, \"Invalid branch\");\n        // require(subDetails[_subjects].isSubject == true);\n        checkStudent[_ad].name = _name;\n        checkStudent[_ad].branchIn = _branchIn;\n        checkStudent[_ad].batch = _batch;\n        checkStudent[_ad].sem = 1;\n        checkStudent[_ad].class = _class;\n        checkStudent[_ad].isStudent = true;\n        students.push(_ad);\n        branchStudent[_branchIn].push(_ad);\n        classStudent[_class].push(_ad);\n        // semStudent[_].push(_ad);\n        return true;\n    }\n    \n    // get all students' addresses\n    function getStudents() public view returns(address[] memory){\n        return students;\n    }\n    \n    // get student from on branch\n    function getBranchStudent(string memory _branch) public view returns(address[] memory){\n        return branchStudent[_branch];\n    }\n    \n    // get student from on branch\n    function getClassStudent(string memory _class) public view returns(address[] memory){\n        return classStudent[_class];\n    }\n    \n    // store subjects\n    mapping(address => uint128[]) public studentSubjects;\n    \n    // store subjects\n    mapping(address => mapping(uint128 => bool)) public checkStudentSubjects;\n    \n    // get students subjects\n    function getStudentSubs(address _studAd) public returns(uint128[] memory){\n        require(checkStudent[_studAd].isStudent == true, \"Invalid student\");\n        studentSubjects[_studAd] = getSub(checkStudent[_studAd].branchIn, checkStudent[_studAd].sem);\n        for(uint128 i = 0 ; i < studentSubjects[_studAd].length; i++){\n            checkStudentSubjects[_studAd][studentSubjects[_studAd][i]] = true;\n        }\n        return studentSubjects[_studAd];\n    }\n    \n    /*end of students details*/\n    \n    /*Student Marks*/\n    \n    // store students' subjects' marks\n    mapping(address=>mapping(uint128 => uint8)) public studentSubjectMarks;\n    \n    //enter subject marks by teacher\n    function marks(address _studAd, uint128 _subject, uint8 _marks) public returns(bool){\n        require(checkTeacher[msg.sender].isTeacher == true, \"Not a teacher\");\n        require(checkStudent[_studAd].isStudent == true, \"Invalid student\");\n        require(checkTeachSub[msg.sender][_subject] == true, \"Teacher dont have this subject\");\n        require(checkStudentSubjects[_studAd][_subject] == true, \"Student does not study this subject\");\n        studentSubjectMarks[_studAd][_subject] = _marks;\n        return true;\n    }\n    \n    //display marks\n    uint8[] public disMarks;\n    function showMarks(address _studAd) public returns(uint8[] memory){\n        require(checkStudent[_studAd].isStudent == true, \"Invalid student\");\n        delete disMarks;\n        for(uint8 i = 0; i<studentSubjects[_studAd].length; i++){\n            disMarks.push(studentSubjectMarks[_studAd][studentSubjects[_studAd][i]]);\n        }\n        return disMarks;\n    }\n    \n    /*end of student marks*/\n}",
  "sourcePath": "/home/suraj333/Documents/MarkSheet@colleg_project/mainProject/contracts/MarkSheet.sol",
  "compiler": {
    "name": "solc",
    "version": "0.5.0+commit.1d4f565a.Emscripten.clang"
  },
  "schemaVersion": "3.0.2",
  "updatedAt": "2019-04-07T13:17:05.286Z",
  "devdoc": {
    "methods": {}
  },
  "userdoc": {
    "methods": {}
  }
}